{
  "contractName": "HoneyPotUser1",
  "abi": [
    {
      "constant": true,
      "inputs": [],
      "name": "honeyPot",
      "outputs": [
        {
          "name": "",
          "type": "address"
        }
      ],
      "payable": false,
      "stateMutability": "view",
      "type": "function"
    },
    {
      "inputs": [
        {
          "name": "_hPotCollect",
          "type": "address"
        }
      ],
      "payable": false,
      "stateMutability": "nonpayable",
      "type": "constructor"
    },
    {
      "payable": true,
      "stateMutability": "payable",
      "type": "fallback"
    },
    {
      "constant": false,
      "inputs": [],
      "name": "kill",
      "outputs": [],
      "payable": false,
      "stateMutability": "nonpayable",
      "type": "function"
    },
    {
      "constant": false,
      "inputs": [],
      "name": "collect",
      "outputs": [],
      "payable": true,
      "stateMutability": "payable",
      "type": "function"
    },
    {
      "constant": true,
      "inputs": [],
      "name": "getBalance",
      "outputs": [
        {
          "name": "",
          "type": "uint256"
        }
      ],
      "payable": false,
      "stateMutability": "view",
      "type": "function"
    }
  ],
  "bytecode": "0x608060405234801561001057600080fd5b5060405160208061028e8339810180604052602081101561003057600080fd5b8101908080519060200190929190505050806000806101000a81548173ffffffffffffffffffffffffffffffffffffffff021916908373ffffffffffffffffffffffffffffffffffffffff160217905550506101fd806100916000396000f3fe60806040526004361061003f5760003560e01c806312065fe01461004157806341c0e1b51461006c578063a31d000b14610083578063e5225381146100da575b005b34801561004d57600080fd5b506100566100e4565b6040518082815260200191505060405180910390f35b34801561007857600080fd5b50610081610103565b005b34801561008f57600080fd5b5061009861011c565b604051808273ffffffffffffffffffffffffffffffffffffffff1673ffffffffffffffffffffffffffffffffffffffff16815260200191505060405180910390f35b6100e2610141565b005b60003073ffffffffffffffffffffffffffffffffffffffff1631905090565b3373ffffffffffffffffffffffffffffffffffffffff16ff5b6000809054906101000a900473ffffffffffffffffffffffffffffffffffffffff1681565b6000809054906101000a9050506000809054906101000a900473ffffffffffffffffffffffffffffffffffffffff1673ffffffffffffffffffffffffffffffffffffffff16636d4ce63c6040518163ffffffff1660e01b8152600401600060405180830381600087803b1580156101b757600080fd5b505af11580156101cb573d6000803e3d6000fd5b5050505056fea165627a7a72305820e8cf005e1d98660e53998b2412ae035229cc136e17c930affd2a510bc7d580c30029",
  "source": "pragma solidity ^0.5.8;\r\nimport \"./HoneyPot.sol\";\r\n\r\ncontract HoneyPotUser1{\r\n    HoneyPot public honeyPot;\r\n    constructor(address _hPotCollect) public{\r\n        honeyPot = HoneyPot(_hPotCollect);\r\n    }\r\n    function kill() public {\r\n        selfdestruct(msg.sender);\r\n    }\r\n    function collect() public payable{\r\n        honeyPot.put.value(msg.value);\r\n        honeyPot.get();\r\n    }\r\n    function getBalance() public view  returns(uint256) {\r\n        return(address(this).balance);\r\n    }\r\n    function() external payable{\r\n    }\r\n}",
  "sourcePath": "C:/Users/NIT-ANDHRA/Desktop/ETH/pr1/contracts/HoneyPotUser1.sol",
  "compiler": {
    "name": "solc",
    "version": "0.5.8+commit.23d335f2.Emscripten.clang"
  },
  "schemaVersion": "3.0.16",
  "updatedAt": "2019-10-28T13:03:55.889Z",
  "devdoc": {
    "methods": {}
  },
  "userdoc": {
    "methods": {}
  }
}