{
  "contractName": "HoneyPot",
  "abi": [
    {
      "constant": true,
      "inputs": [
        {
          "name": "",
          "type": "address"
        }
      ],
      "name": "balances",
      "outputs": [
        {
          "name": "",
          "type": "uint256"
        }
      ],
      "payable": false,
      "stateMutability": "view",
      "type": "function"
    },
    {
      "constant": true,
      "inputs": [],
      "name": "cnt1",
      "outputs": [
        {
          "name": "",
          "type": "uint256"
        }
      ],
      "payable": false,
      "stateMutability": "view",
      "type": "function"
    },
    {
      "constant": true,
      "inputs": [],
      "name": "cnt2",
      "outputs": [
        {
          "name": "",
          "type": "uint256"
        }
      ],
      "payable": false,
      "stateMutability": "view",
      "type": "function"
    },
    {
      "inputs": [],
      "payable": true,
      "stateMutability": "payable",
      "type": "constructor"
    },
    {
      "constant": false,
      "inputs": [],
      "name": "put",
      "outputs": [],
      "payable": true,
      "stateMutability": "payable",
      "type": "function"
    },
    {
      "constant": true,
      "inputs": [],
      "name": "getAddresses",
      "outputs": [
        {
          "name": "",
          "type": "address[]"
        }
      ],
      "payable": false,
      "stateMutability": "view",
      "type": "function"
    },
    {
      "constant": true,
      "inputs": [],
      "name": "getCnt1",
      "outputs": [
        {
          "name": "",
          "type": "uint256"
        }
      ],
      "payable": false,
      "stateMutability": "view",
      "type": "function"
    },
    {
      "constant": true,
      "inputs": [],
      "name": "getCnt2",
      "outputs": [
        {
          "name": "",
          "type": "uint256"
        }
      ],
      "payable": false,
      "stateMutability": "view",
      "type": "function"
    },
    {
      "constant": false,
      "inputs": [],
      "name": "get",
      "outputs": [],
      "payable": false,
      "stateMutability": "nonpayable",
      "type": "function"
    },
    {
      "constant": true,
      "inputs": [
        {
          "name": "a",
          "type": "address"
        }
      ],
      "name": "getAddressBalance",
      "outputs": [
        {
          "name": "",
          "type": "uint256"
        }
      ],
      "payable": false,
      "stateMutability": "view",
      "type": "function"
    },
    {
      "constant": true,
      "inputs": [],
      "name": "getBalance",
      "outputs": [
        {
          "name": "",
          "type": "uint256"
        }
      ],
      "payable": false,
      "stateMutability": "view",
      "type": "function"
    }
  ],
  "bytecode": "0x608060405261001261001760201b60201c565b6100c2565b346000803373ffffffffffffffffffffffffffffffffffffffff1673ffffffffffffffffffffffffffffffffffffffff1681526020019081526020016000208190555060033390806001815401808255809150509060018203906000526020600020016000909192909190916101000a81548173ffffffffffffffffffffffffffffffffffffffff021916908373ffffffffffffffffffffffffffffffffffffffff16021790555050565b61062b806100d16000396000f3fe6080604052600436106100915760003560e01c80636d4ce63c116100595780636d4ce63c146101c05780638a03fbf1146101d75780638d3ae785146102025780639e633f711461022d578063a39fac121461025857610091565b806312065fe01461009657806327e235e3146100c15780633504672214610126578063549262ba1461018b57806365ed606b14610195575b600080fd5b3480156100a257600080fd5b506100ab6102c4565b6040518082815260200191505060405180910390f35b3480156100cd57600080fd5b50610110600480360360208110156100e457600080fd5b81019080803573ffffffffffffffffffffffffffffffffffffffff1690602001909291905050506102e3565b6040518082815260200191505060405180910390f35b34801561013257600080fd5b506101756004803603602081101561014957600080fd5b81019080803573ffffffffffffffffffffffffffffffffffffffff1690602001909291905050506102fb565b6040518082815260200191505060405180910390f35b610193610343565b005b3480156101a157600080fd5b506101aa6103ee565b6040518082815260200191505060405180910390f35b3480156101cc57600080fd5b506101d56103f4565b005b3480156101e357600080fd5b506101ec610557565b6040518082815260200191505060405180910390f35b34801561020e57600080fd5b50610217610561565b6040518082815260200191505060405180910390f35b34801561023957600080fd5b50610242610567565b6040518082815260200191505060405180910390f35b34801561026457600080fd5b5061026d610571565b6040518080602001828103825283818151815260200191508051906020019060200280838360005b838110156102b0578082015181840152602081019050610295565b505050509050019250505060405180910390f35b60003073ffffffffffffffffffffffffffffffffffffffff1631905090565b60006020528060005260406000206000915090505481565b60008060008373ffffffffffffffffffffffffffffffffffffffff1673ffffffffffffffffffffffffffffffffffffffff168152602001908152602001600020549050919050565b346000803373ffffffffffffffffffffffffffffffffffffffff1673ffffffffffffffffffffffffffffffffffffffff1681526020019081526020016000208190555060033390806001815401808255809150509060018203906000526020600020016000909192909190916101000a81548173ffffffffffffffffffffffffffffffffffffffff021916908373ffffffffffffffffffffffffffffffffffffffff16021790555050565b60015481565b6000670de0b6b3a76400009050806000803373ffffffffffffffffffffffffffffffffffffffff1673ffffffffffffffffffffffffffffffffffffffff16815260200190815260200160002054106104fd57600060603373ffffffffffffffffffffffffffffffffffffffff166301312d008460405180807f5472616e73616374696f6e20446f6e65000000000000000000000000000000008152506010019050600060405180830381858888f193505050503d80600081146104d3576040519150601f19603f3d011682016040523d82523d6000602084013e6104d8565b606091505b509150915081156104f6576001600081548092919060010191905055505b5050610510565b6002600081548092919060010191905055505b60008060003373ffffffffffffffffffffffffffffffffffffffff1673ffffffffffffffffffffffffffffffffffffffff1681526020019081526020016000208190555050565b6000600154905090565b60025481565b6000600254905090565b606060038054806020026020016040519081016040528092919081815260200182805480156105f557602002820191906000526020600020905b8160009054906101000a900473ffffffffffffffffffffffffffffffffffffffff1673ffffffffffffffffffffffffffffffffffffffff16815260200190600101908083116105ab575b505050505090509056fea165627a7a7230582095fde846aef5bf0586cdc68f9b94590189e469fd1be4186b82eef719d700c39c0029",
  "source": "pragma solidity >=0.4.21 <0.6.0;\r\ncontract HoneyPot {\r\n  mapping (address => uint) public balances;\r\n  uint public cnt1;\r\n  uint public cnt2;\r\n  address[] adds;\r\n  constructor() public payable {\r\n    put();\r\n  }\r\n  function put() public payable {\r\n    balances[msg.sender] = msg.value;\r\n    adds.push(msg.sender);\r\n  }\r\n  function getAddresses() public view returns( address[] memory){\r\n    return adds;\r\n  }\r\n  function getCnt1() public view returns(uint){\r\n    return cnt1;\r\n  }\r\n  function getCnt2() public view returns(uint){\r\n    return cnt2;\r\n  }\r\n  function get() public {\r\n    //if (!msg.sender.send(balances[msg.sender])) {\r\n    //  revert('send failed for some reason');\r\n    //}\r\n    uint transferAmt = 1 ether;\r\n    if(balances[msg.sender]>=transferAmt){\r\n      (bool success, bytes memory returnData) = msg.sender.call.gas(20000000).value(transferAmt)(\"Transaction Done\");\r\n      if(success){\r\n      //if(!msg.sender.send(balances[msg.sender])){\r\n      cnt1++;\r\n      }\r\n    }else{\r\n      cnt2++;\r\n    }\r\n    balances[msg.sender] = 0;\r\n  }\r\n  function getAddressBalance(address a) public view returns(uint) {\r\n    return balances[a];\r\n  }\r\n  function getBalance() public view  returns(uint256) {\r\n     return(address(this).balance);\r\n  }\r\n}",
  "sourcePath": "C:\\Users\\NIT-ANDHRA\\Desktop\\ETH\\pr1\\contracts\\HoneyPot.sol",
  "compiler": {
    "name": "solc",
    "version": "0.5.8+commit.23d335f2.Emscripten.clang"
  },
  "schemaVersion": "3.0.16",
  "updatedAt": "2019-10-28T13:03:55.884Z",
  "devdoc": {
    "methods": {}
  },
  "userdoc": {
    "methods": {}
  }
}