{
  "contractName": "HoneyPotUser",
  "abi": [
    {
      "constant": true,
      "inputs": [],
      "name": "honeyPot",
      "outputs": [
        {
          "name": "",
          "type": "address"
        }
      ],
      "payable": false,
      "stateMutability": "view",
      "type": "function"
    },
    {
      "inputs": [
        {
          "name": "_hPotCollect",
          "type": "address"
        }
      ],
      "payable": false,
      "stateMutability": "nonpayable",
      "type": "constructor"
    },
    {
      "payable": true,
      "stateMutability": "payable",
      "type": "fallback"
    },
    {
      "anonymous": false,
      "inputs": [
        {
          "indexed": false,
          "name": "c",
          "type": "uint256"
        },
        {
          "indexed": false,
          "name": "balance",
          "type": "uint256"
        }
      ],
      "name": "LogFallBack",
      "type": "event"
    },
    {
      "constant": false,
      "inputs": [],
      "name": "kill",
      "outputs": [],
      "payable": false,
      "stateMutability": "nonpayable",
      "type": "function"
    },
    {
      "constant": false,
      "inputs": [],
      "name": "put",
      "outputs": [],
      "payable": true,
      "stateMutability": "payable",
      "type": "function"
    },
    {
      "constant": false,
      "inputs": [],
      "name": "get",
      "outputs": [],
      "payable": false,
      "stateMutability": "nonpayable",
      "type": "function"
    },
    {
      "constant": true,
      "inputs": [],
      "name": "getBalance",
      "outputs": [
        {
          "name": "",
          "type": "uint256"
        }
      ],
      "payable": false,
      "stateMutability": "view",
      "type": "function"
    },
    {
      "constant": true,
      "inputs": [],
      "name": "getCounter",
      "outputs": [
        {
          "name": "",
          "type": "uint256"
        }
      ],
      "payable": false,
      "stateMutability": "view",
      "type": "function"
    }
  ],
  "bytecode": "0x608060405234801561001057600080fd5b506040516020806104478339810180604052602081101561003057600080fd5b8101908080519060200190929190505050806000806101000a81548173ffffffffffffffffffffffffffffffffffffffff021916908373ffffffffffffffffffffffffffffffffffffffff160217905550506103b6806100916000396000f3fe6080604052600436106100555760003560e01c806312065fe01461013757806341c0e1b514610162578063549262ba146101795780636d4ce63c146101835780638ada066e1461019a578063a31d000b146101c5575b6001600081548092919060010191905055507fa0818ef41bda627a5bd965e5ac773236bca9739f449ed12ce7b62b913e89498360015434604051808381526020018281526020019250505060405180910390a1600a6001541015610135576000809054906101000a900473ffffffffffffffffffffffffffffffffffffffff1673ffffffffffffffffffffffffffffffffffffffff16636d4ce63c6040518163ffffffff1660e01b8152600401600060405180830381600087803b15801561011c57600080fd5b505af1158015610130573d6000803e3d6000fd5b505050505b005b34801561014357600080fd5b5061014c61021c565b6040518082815260200191505060405180910390f35b34801561016e57600080fd5b5061017761023b565b005b610181610254565b005b34801561018f57600080fd5b506101986102d8565b005b3480156101a657600080fd5b506101af61035b565b6040518082815260200191505060405180910390f35b3480156101d157600080fd5b506101da610365565b604051808273ffffffffffffffffffffffffffffffffffffffff1673ffffffffffffffffffffffffffffffffffffffff16815260200191505060405180910390f35b60003073ffffffffffffffffffffffffffffffffffffffff1631905090565b3373ffffffffffffffffffffffffffffffffffffffff16ff5b6000809054906101000a900473ffffffffffffffffffffffffffffffffffffffff1673ffffffffffffffffffffffffffffffffffffffff1663549262ba346040518263ffffffff1660e01b81526004016000604051808303818588803b1580156102bd57600080fd5b505af11580156102d1573d6000803e3d6000fd5b5050505050565b6000809054906101000a900473ffffffffffffffffffffffffffffffffffffffff1673ffffffffffffffffffffffffffffffffffffffff16636d4ce63c6040518163ffffffff1660e01b8152600401600060405180830381600087803b15801561034157600080fd5b505af1158015610355573d6000803e3d6000fd5b50505050565b6000600154905090565b6000809054906101000a900473ffffffffffffffffffffffffffffffffffffffff168156fea165627a7a7230582051730a04a288439121a6d6d581dceae3fe66ca6d7a39b02e685debf1445c674a0029",
  "source": "pragma solidity ^0.5.8;\r\nimport \"./HoneyPot.sol\";\r\n\r\ncontract HoneyPotUser{\r\n    HoneyPot public honeyPot;\r\n    uint counter;\r\n    event LogFallBack(uint c, uint balance);\r\n    constructor(address _hPotCollect) public{\r\n        honeyPot = HoneyPot(_hPotCollect);\r\n    }\r\n    function kill() public {\r\n        selfdestruct(msg.sender);\r\n    }\r\n    function put() public payable{\r\n        honeyPot.put.value(msg.value)();\r\n    }\r\n    function get() public{\r\n        honeyPot.get();\r\n    }\r\n    function getBalance() public view  returns(uint256) {\r\n         return(address(this).balance);\r\n    }\r\n    function() external payable{\r\n        counter++;\r\n        emit LogFallBack(counter, msg.value);\r\n        if(counter<10){\r\n            honeyPot.get();\r\n        }\r\n    }\r\n    function getCounter() public view returns(uint){\r\n        return counter;\r\n    }\r\n}",
  "sourcePath": "C:/Users/NIT-ANDHRA/Desktop/ETH/pr1/contracts/HoneyPotUser.sol",
  "compiler": {
    "name": "solc",
    "version": "0.5.8+commit.23d335f2.Emscripten.clang"
  },
  "schemaVersion": "3.0.16",
  "updatedAt": "2019-10-28T13:03:55.229Z",
  "devdoc": {
    "methods": {}
  },
  "userdoc": {
    "methods": {}
  }
}