{
  "contractName": "simple",
  "abi": [
    {
      "constant": true,
      "inputs": [],
      "name": "getBalance",
      "outputs": [
        {
          "name": "",
          "type": "uint256"
        }
      ],
      "payable": false,
      "stateMutability": "view",
      "type": "function"
    },
    {
      "constant": false,
      "inputs": [
        {
          "name": "amount",
          "type": "uint256"
        }
      ],
      "name": "deposit",
      "outputs": [],
      "payable": true,
      "stateMutability": "payable",
      "type": "function"
    },
    {
      "constant": false,
      "inputs": [],
      "name": "deposit",
      "outputs": [],
      "payable": true,
      "stateMutability": "payable",
      "type": "function"
    }
  ],
  "bytecode": "0x608060405234801561001057600080fd5b50610161806100206000396000f3fe6080604052600436106100345760003560e01c806312065fe014610039578063b6b55f2514610064578063d0e30db014610092575b600080fd5b34801561004557600080fd5b5061004e61009c565b6040518082815260200191505060405180910390f35b6100906004803603602081101561007a57600080fd5b81019080803590602001909291905050506100bb565b005b61009a610133565b005b60003073ffffffffffffffffffffffffffffffffffffffff1631905090565b803414610130576040517f08c379a00000000000000000000000000000000000000000000000000000000081526004018080602001828103825260108152602001807f536f6d65207468696e672057726f6e670000000000000000000000000000000081525060200191505060405180910390fd5b50565b56fea165627a7a723058203de383209b64a1d8ad37f3e9e5576cab58f9793f31a0fbbf9c3998827c3331470029",
  "source": "pragma solidity >=0.4.21 <0.6.0;\r\ncontract simple{\r\n    function deposit() public payable{\r\n\r\n    }\r\n    function getBalance() public view returns(uint256){\r\n        return address(this).balance;\r\n    }\r\n    function deposit(uint256 amount) public payable {\r\n        require(msg.value==amount,\"Some thing Wrong\");\r\n    }\r\n}",
  "sourcePath": "C:/Users/NIT-ANDHRA/Desktop/ETH/pr1/contracts/simple.sol",
  "compiler": {
    "name": "solc",
    "version": "0.5.8+commit.23d335f2.Emscripten.clang"
  },
  "schemaVersion": "3.0.16",
  "updatedAt": "2019-10-28T13:03:55.542Z",
  "devdoc": {
    "methods": {}
  },
  "userdoc": {
    "methods": {}
  }
}